:100000000C9474000C9495000C9495000C9495003D
:100010000C9495000C9495000C9495000C9495000C
:100020000C9495000C9495000C9495000C949500FC
:100030000C9495000C9495000C9495000C949500EC
:100040000C9495000C9495000C9495000C949500DC
:100050000C9495000C9495000C9495000C949500CC
:100060000C9495000C9495000C9495000C949500BC
:100070000C9495000C9495000C9495000C949500AC
:100080000C9495000C9495000C9495000C9495009C
:100090000C9495000C9495000C9495000C9495008C
:1000A0000C9495000C9495000C9495000C9495007C
:1000B0000C9495000C9495000C9495000C9495006C
:1000C0000C9495000C9495000C9495000C9495005C
:1000D0000C9495000C9495000C9495000C9495004C
:1000E0000C9495000C94970011241FBECFEFD1E221
:1000F000DEBFCDBF00E00CBF12E0A0E0B2E0E2EB5B
:10010000F4E100E00BBF02C007900D92A436B107E6
:10011000D9F727E0A4E6B2E001C01D92A237B207EA
:10012000E1F70E94D9040C94570A0C9400008A301D
:1001300049F09091C00095FFFCCF8093C60080E00D
:1001400090E008959091C00095FFFCCF9DE09093C2
:10015000C600EFCF9093C5008093C40086E08093E3
:10016000C20088E98093C10008959091C00095FF76
:10017000FCCF8093C60008958091C00087FFFCCF1C
:100180008091C60008958091C000881F8827881F2D
:100190000895FC012081222351F031969091C000F6
:1001A00095FFFCCF2093C60021912111F7CF089530
:1001B00080E092E090936B0780936A071092C500ED
:1001C00082E38093C40086E08093C20088E9809334
:1001D000C100089590E490937C0090917C00907E03
:1001E0008F71892B80937C0080917B00877F809327
:1001F0007B0087E880937A0080917A008064809306
:100200007A0080917A0086FDFCCF809178009091F1
:10021000790008951092C50082E38093C40086E0BF
:100220008093C20088E98093C10008959091C00036
:1002300095FFFCCF8093C60008958091C00087FF92
:10024000FCCF8091C60008959C01FC019091C000F4
:1002500097FFFCCF9091C60091939A3011F09D309A
:10026000A9F71192CF01821B930B0895FC01208105
:10027000222351F031969091C00095FFFCCF20933E
:10028000C60021912111F7CF08950F931F93CF93AB
:10029000DF938130910509F4E3C00CF4CAC08230C9
:1002A000910509F488C0039709F0BEC0E4E6F2E0C6
:1002B00080E090E0A191B1912D913C91820F931F2C
:1002C00022E0E03AF207B1F7C0911C03D0911D0380
:1002D000FB0102811381248135816EE170E00E946F
:1002E0009F05CB01B901A8010E94770490931D03DB
:1002F00080931C0380911E0390911F03D0931F03D2
:10030000C0931E0320912003309121039093210379
:100310008093200380912203909123033093230341
:1003200020932203209124033091250390932503E9
:100330008093240380912603909127033093270311
:1003400020932603209128033091290390932903B9
:100350008093280380912A0390912B0330932B03E1
:1003600020932A0320912C0330912D0390932D0389
:1003700080932C0380912E0390912F0330932F03B1
:1003800020932E0320913003309131039093310359
:100390008093300380913203909133033093330381
:1003A00020933203009709F43FC0DF91CF911F9152
:1003B0000F910C94A804E4E3F3E080E090E0A191B5
:1003C000B1912D913C91820F931F23E0E436F20707
:1003D000B1F7C0916402D0916502FB0102811381E3
:1003E0002481358168E170E00E949F05CB01B9014D
:1003F000A8010E9477049093650280936402E6E668
:10040000F2E090818181C193D193C92FD82F22E04E
:10041000E03AF207B1F7209739F0CE01DF91CF91A2
:100420001F910F910C94A804DF91CF911F910F9110
:100430000895892BC9F78091A4029091A502709329
:10044000A5026093A402E6EAF2E030812181819363
:100450009193832F922F23E0EC31F207B1F7A2CFD3
:10046000E4EAF2E080E090E0A191B1912D913C911D
:10047000820F931F23E0EC31F207B1F7C0913403F0
:10048000D0913503FB0102811381248135816CE316
:1004900070E00E949F05CB01B901A8010E9477047A
:1004A0009093350380933403E6E3F3E090818181F8
:1004B000C193D193C92FD82F23E0E436F207B1F7C7
:1004C000AACF0F931F93CF93DF93C4EAD2E006C065
:1004D0000E94A80483E0CC31D80721F0899199913A
:1004E0000097B1F7C4E3D3E004E613E005C00E942F
:1004F000A8040C171D0721F0899199910097B9F76D
:10050000C4E6D2E000EA12E005C00E94A8040C177D
:100510001D0721F0899199910097B9F7CCE1D3E0BB
:1005200004E313E089919991009729F00E94A804AF
:100530000C171D07B9F7DF91CF911F910F91089507
:100540000E94BD046093A0027093A1028093A20256
:100550009093A30288E7E4EAF2E0DF011D928A9516
:10056000E9F780E3E4E3F3E0DF011D928A95E9F720
:100570008CE3E4E6F2E0DF011D928A95E9F788E179
:10058000ECE1F3E0DF011D928A95E9F708952F92DF
:100590003F924F925F926F927F928F929F92AF9213
:1005A000BF92CF92DF92EF92FF920F931F93CF9360
:1005B000DF93CDB7DEB7D8500FB6F894DEBF0FBECD
:1005C000CDBF7E012FEFE21A2BEFF20A80E094E01C
:1005D000D701FC011D923197E9F78E010F5F1F4F84
:1005E000D801FC011D923197E9F794EAC92E92E0F7
:1005F000D92E25E5A22E22E0B22E3AE5632E32E076
:10060000732E4EE5442E42E0542E33C081818F93E9
:1006100080818F937F926F921F930F930E946E073A
:10062000B801C7010E945307B2E0CB0ED11CD40120
:10063000ED91FC9185818F9384818F9383818F933A
:1006400082818F935F924F921F930F930E946E0748
:10065000B801C7010E944807C7010E9436010FB6C2
:10066000F894DEBF0FBECDBFFCE1CF16F3E0DF068E
:10067000B1F04601D60111968C9111978F938C9110
:100680008F93BF92AF920E945A07D601ED91FC91D1
:100690000F900F900F900F90309709F0B7CFF4E3C1
:1006A000CF2EF3E0DF2EA5E5AA2EA2E0BA2EBAE502
:1006B0006B2EB2E07B2E8EE5482E82E0582E33C0A2
:1006C00081818F9380818F937F926F921F930F937D
:1006D0000E946E07B801C7010E945307B2E0CB0E1B
:1006E000D11CD401ED91FC9185818F9384818F93EE
:1006F00083818F9382818F935F924F921F930F9389
:100700000E946E07B801C7010E944807C7010E94F6
:1007100036010FB6F894DEBF0FBECDBFF4E6CF169C
:10072000F3E0DF06B1F04601D60111968C911197E6
:100730008F938C918F93BF92AF920E945A07D601EC
:10074000ED91FC910F900F900F900F90309709F062
:10075000B7CF54E6C52E52E0D52E65E5A62E62E051
:10076000B62E7AE5672E72E0772EEEE54E2EE2E0A9
:100770005E2E33C081818F9380818F937F926F92A1
:100780001F930F930E946E07B801C7010E94530781
:10079000B2E0CB0ED11CD401ED91FC9185818F93F9
:1007A00084818F9383818F9382818F935F924F9205
:1007B0001F930F930E946E07B801C7010E9448075C
:1007C000C7010E9436010FB6F894DEBF0FBECDBF41
:1007D000F0EACF16F2E0DF06B1F04601D60111963D
:1007E0008C9111978F938C918F93BF92AF920E94AF
:1007F0005A07D601ED91FC910F900F900F900F903A
:10080000309709F0B7CF8CE1C82E83E0D82E94E35F
:10081000692E93E0792E25E5A22E22E0B22E3AE54C
:10082000432E32E0532E4EE5242E42E0342E460174
:10083000D60111968C9111978F938C918F93BF92C3
:10084000AF920E945A07D601ED91FC910F900F9044
:100850000F900F90309791F181818F9380818F93CA
:100860005F924F921F930F930E946E07B801C701CA
:100870000E945307B2E0CB0ED11CD401ED91FC9144
:1008800085818F9384818F9383818F9382818F93CE
:100890003F922F921F930F930E946E07B801C701DA
:1008A0000E944807C7010E9436010FB6F894DEBFC8
:1008B0000FBECDBF6C147D0409F0B9CFD85F0FB661
:1008C000F894DEBF0FBECDBFDF91CF911F910F9186
:1008D000FF90EF90DF90CF90BF90AF909F908F9060
:1008E0007F906F905F904F903F902F900895CF92A0
:1008F000DF92EF92FF920F931F93CF93DF938C01C0
:100900006A017B0166E070E081E090E00E940406ED
:10091000EC011D830C838FEFC816D806E806F80695
:1009200071F0C882D982EA82FB82CE01DF91CF9139
:100930001F910F91FF90EF90DF90CF90089580E08E
:1009400090E00E94C604688379838A839B83EDCFFD
:100950000C94B806FB012081318142815381FC0156
:1009600060817181828193810E94C1040E94C905C6
:100970000895FC0184819581089580E090E00C94B5
:10098000C604621B730B840B950B0895FC010FB614
:10099000F89460916E0770916F0780917007909145
:1009A00071070FBE309721F0608371838283938338
:1009B00008950E94D8000E940A010E94A002612CA2
:1009C000712C00E010E0A12CB12CC12CD12C812C79
:1009D000912CC0E0D0E08CE3E82EF12C98E1492E78
:1009E000512C2EE1222E312C1EC0C401B7010E94D1
:1009F0009F05892B09F445C0C601B2010E949F05DD
:100A0000892B09F44FC0C501B1010E949F05892BB4
:100A100009F459C02FEF83ED90E3215080409040BE
:100A2000E1F700C000008091C00087FD54C080E065
:100A30000E94EA00080F191F2196CE01B7010E94FB
:100A40009F05892B91F6C801B7010E949F05CB0134
:100A50004FEF5FEFBA010E9477043C01BC0180E0D8
:100A600090E00E9445012FEF821A920A00E010E008
:100A7000C0E0D0E0C401B7010E949F05892B09F0B6
:100A8000BBCFB30181E090E00E9445018FEFC81A0F
:100A9000D80A812C912CC601B2010E949F05892B96
:100AA00009F0B1CFB30182E090E00E9445019FEFD1
:100AB000A91AB90AC12CD12CC501B1010E949F0508
:100AC000892B09F0A7CFB30183E090E00E94450194
:100AD000A12CB12C9FCF84E693E00E94240184E6F0
:100AE00093E00E943601809164038F3699F048F0BC
:100AF0008137F1F08337B9F484E693E00E94360140
:100B000096CF833681F484E192E00E9436010E9400
:100B1000A0028DCF84E693E00E94360184E693E044
:100B20000E94240184CF8AE392E00E9436017FCFA5
:100B300088E292E00E9436010E94C70278CF97FBBC
:100B4000072E16F4009407D077FD09D00E94B30554
:100B500007FC05D03EF4909581959F4F08957095C0
:100B600061957F4F0895AA1BBB1B51E107C0AA1FC7
:100B7000BB1FA617B70710F0A61BB70B881F991F3E
:100B80005A95A9F780959095BC01CD010895E894F8
:100B900009C097FB3EF490958095709561957F4FC5
:100BA0008F4F9F4F9923A9F0F92F96E9BB27939573
:100BB000F695879577956795B795F111F8CFFAF483
:100BC000BB0F11F460FF1BC06F5F7F4F8F4F9F4FB4
:100BD00016C0882311F096E911C0772321F09EE812
:100BE000872F762F05C0662371F096E8862F70E078
:100BF00060E02AF09A95660F771F881FDAF7880F52
:100C00009695879597F908950F931F93CF93DF9348
:100C1000869F8001879F100D969F100D1124C8019B
:100C20000E942006EC01009729F0A80160E070E026
:100C30000E944107CE01DF91CF911F910F9108953E
:100C40000F931F93CF93DF938230910510F482E0CE
:100C500090E0E0916607F091670720E030E0A0E0C7
:100C6000B0E0309719F1408151810281138148171A
:100C70005907C8F08417950769F4109731F0129658
:100C80000C93129713961C9327C00093660710933A
:100C9000670722C02115310519F04217530718F4D0
:100CA0009A01BD01EF01DF01F801DBCF211531050C
:100CB000F9F0281B390B2430310580F48A819B819F
:100CC0006115710521F0FB019383828304C0909329
:100CD000670780936607FE01329644C0FE01E20F6B
:100CE000F31F8193919322503109398328833AC0AD
:100CF0002091640730916507232B41F42091100265
:100D000030911102309365072093640720910E0201
:100D100030910F022115310541F42DB73EB74091B6
:100D2000120250911302241B350BE0916407F091DD
:100D30006507E217F307A0F42E1B3F0B28173907AE
:100D400078F0AC014E5F5F4F2417350748F04E0F27
:100D50005F1F50936507409364078193919302C08E
:100D6000E0E0F0E0CF01DF91CF911F910F91089566
:100D7000CF93DF93009709F481C0FC01329713826F
:100D80001282A0916607B0916707109781F42081C5
:100D90003181820F931F20916407309165072817D6
:100DA000390751F5F0936507E093640767C0ED01DB
:100DB00020E030E0CE17DF0740F44A815B819E01DE
:100DC00041155105F1F0EA01F5CFD383C28340818B
:100DD0005181840F951FC817D90759F488819981CB
:100DE000840F951F0296918380838A819B819383D0
:100DF00082832115310529F4F0936707E093660794
:100E00003DC0E901FB83EA8349915991C40FD51F85
:100E1000EC17FD0761F480819181840F951F029684
:100E2000E90199838883828193819B838A83E0E0AF
:100E3000F0E012968D919C911397009719F0FD01A7
:100E4000DC01F7CF8D919C9111979D012E5F3F4F53
:100E5000820F931F20916407309165072817390787
:100E600069F4309729F4109267071092660702C060
:100E700013821282B0936507A0936407DF91CF912C
:100E80000895DC0101C06D9341505040E0F7089592
:100E9000FB01DC010D900020E9F7119701900D9204
:100EA0000020E1F70895FB01DC0101900D92002084
:100EB000E1F70895CF93DF93CDB7DEB7AE014A5F78
:100EC0005F4FFA0161917191AF0180916A07909132
:100ED0006B070E949D07DF91CF9108950F931F9399
:100EE000CF93DF93CDB7DEB72E970FB6F894DEBF62
:100EF0000FBECDBF0E891F8986E08C831A830983BC
:100F00008FEF9FE79E838D83AE01465E5F4F688DB6
:100F1000798DCE0101960E949D07EF81F885E00F43
:100F2000F11F10822E960FB6F894DEBF0FBECDBF14
:100F3000DF91CF911F910F9108952F923F924F9281
:100F40005F926F927F928F929F92AF92BF92CF9259
:100F5000DF92EF92FF920F931F93CF93DF93CDB762
:100F6000DEB72B970FB6F894DEBF0FBECDBF6C0176
:100F70007B018A01FC0117821682838181FFCCC12B
:100F8000CE0101963C01F6019381F70193FD859115
:100F900093FF81917F01882309F4BAC1853239F426
:100FA00093FD859193FF81917F01853229F4B601EC
:100FB00090E00E94BD09E7CF912C212C312CFFE15C
:100FC000F315D8F08B3279F038F4803279F083322F
:100FD000A1F4232D20611DC08D3261F0803369F4AE
:100FE000232D216016C0832D8260382EE32DE4600E
:100FF0003E2E2AC0F32DF8601DC037FC2DC020ED19
:10100000280F2A3040F08E32B9F436FC81C1232DEE
:101010002064322E19C036FE06C08AE0989E200D4C
:101020001124922E11C0EAE02E9E200D1124222EB2
:10103000F32DF0623F2E08C08C3621F4832D80689A
:10104000382E02C0883641F4F70193FD859193FF55
:1010500081917F018111B3CF982F9F7D955493305B
:1010600028F40C5F1F4F9FE399830DC0833631F046
:10107000833771F0833509F059C021C0F8018081B0
:1010800089830E5F1F4F88248394912C530113C0D2
:101090002801F2E04F0E511CF801A080B18036FE0D
:1010A00003C0692D70E002C06FEF7FEFC5010E94A1
:1010B000B2094C018201F32DFF773F2E16C02801A3
:1010C00022E0420E511CF801A080B18036FE03C020
:1010D000692D70E002C06FEF7FEFC5010E94A70984
:1010E0004C01F32DF0683F2E820133FC1BC0822D92
:1010F00090E088169906B0F4B60180E290E00E9474
:10110000BD092A94F4CFF50137FC859137FE819112
:101110005F01B60190E00E94BD0921102A9421E0F0
:10112000821A91088114910471F7E8C0843611F095
:10113000893641F5F80137FE07C0608171818281EF
:1011400093810C5F1F4F08C060817181072E000CD6
:10115000880B990B0E5F1F4FF32DFF763F2E97FFE5
:1011600009C090958095709561957F4F8F4F9F4FE7
:10117000F0683F2E2AE030E0A3010E94F909882E92
:10118000861845C0853731F4232D2F7EB22E2AE0F4
:1011900030E025C0932D997FB92E8F36C1F018F419
:1011A000883579F0B5C0803719F0883721F0B0C0A4
:1011B000E92FE061BE2EB4FE0DC0FB2DF460BF2E02
:1011C00009C034FE0AC0292F2660B22E06C028E0CE
:1011D00030E005C020E130E002C020E132E0F8015B
:1011E000B7FE07C060817181828193810C5F1F4FC0
:1011F00006C06081718180E090E00E5F1F4FA30107
:101200000E94F909882E8618FB2DFF773F2E36FEA7
:101210000DC0232D2E7FA22E891458F434FE0BC04E
:1012200032FC09C0832D8E7EA82E05C0B82CA32CBD
:1012300003C0B82C01C0B92CA4FE0FC0FE01E80DFC
:10124000F11D8081803321F49A2D997EA92E09C049
:10125000A2FE06C0B394B39404C08A2D867809F028
:10126000B394A3FC11C0A0FE06C0B21488F4280CED
:10127000922C9B180EC0B21460F4B60180E290E08C
:101280000E94BD09B394F7CFB21418F42B1802C012
:10129000982C212CA4FE10C0B60180E390E00E949F
:1012A000BD09A2FE17C0A1FC03C088E790E002C000
:1012B00088E590E0B6010CC08A2D867859F0A1FE31
:1012C00002C08BE201C080E2A7FC8DE2B60190E093
:1012D0000E94BD09891438F4B60180E390E00E94B1
:1012E000BD099A94F7CF8A94F301E80DF11D80812E
:1012F000B60190E00E94BD098110F5CF222009F4CB
:1013000042CEB60180E290E00E94BD092A94F6CF59
:10131000F6018681978102C08FEF9FEF2B960FB663
:10132000F894DEBF0FBECDBFDF91CF911F910F911B
:10133000FF90EF90DF90CF90BF90AF909F908F90F5
:101340007F906F905F904F903F902F900895FC0199
:101350000590615070400110D8F7809590958E0FE0
:101360009F1F0895FC016150704001900110D8F753
:10137000809590958E0F9F1F08950F931F93CF9385
:10138000DF93FB01238121FD03C08FEF9FEF2CC072
:1013900022FF16C0468157812481358142175307A9
:1013A00044F4A081B1819D012F5F3F4F31832083A1
:1013B0008C93268137812F5F3F4F3783268314C05C
:1013C0008B01EC01FB010084F185E02D1995892B3F
:1013D000E1F6D80116968D919C9117970196179674
:1013E0009C938E931697CE01DF91CF911F910F9111
:1013F0000895FA01AA27283051F1203181F1E894AB
:101400006F936E7F6E5F7F4F8F4F9F4FAF4FB1E0F7
:101410003ED0B4E03CD0670F781F891F9A1FA11DF2
:10142000680F791F8A1F911DA11D6A0F711D811DF3
:10143000911DA11D20D009F468943F912AE0269FB8
:1014400011243019305D3193DEF6CF010895462F17
:101450004770405D4193B3E00FD0C9F7F6CF462FF8
:101460004F70405D4A3318F0495D31FD4052419361
:1014700002D0A9F7EACFB4E0A6959795879577951E
:101480006795BA95C9F700976105710508959B01A5
:10149000AC010A2E06945795479537952795BA952E
:1014A000C9F7620F731F841F951FA01D0895F8943C
:0214B000FFCF6C
:1014B2000000000200000000970000000000000091
:1014C20072072000636C656172696E6720737461D4
:1014D2007473202E2E2E0A0073656E64696E672067
:1014E20064617461202E2E2E0A0077686174206870
:1014F20061766520796F752073656E7420746F2034
:101502006D653F0A002D25640A0025642000256CC4
:04151200640A000067
:00000001FF
