:100000000C9474000C9495000C9495000C9495003D
:100010000C9495000C9495000C9495000C9495000C
:100020000C9495000C9495000C9495000C949500FC
:100030000C9495000C9495000C9495000C949500EC
:100040000C9495000C9495000C9495000C949500DC
:100050000C9495000C9495000C9495000C949500CC
:100060000C9495000C94A6000C9495000C949500AB
:100070000C9495000C9495000C9495000C949500AC
:100080000C9495000C9495000C9495000C9495009C
:100090000C9495000C9495000C9495000C9495008C
:1000A0000C9495000C9495000C9495000C9495007C
:1000B0000C9495000C9495000C9495000C9497006A
:1000C0000C9495000C9495000C9495000C9495005C
:1000D0000C9495000C9495000C9495000C9495004C
:1000E0000C9495000C94BA0011241FBECFEFD1E2FE
:1000F000DEBFCDBF00E00CBF12E0A0E0B2E0EEEA50
:10010000FFE000E00BBF02C007900D92A23BB107D9
:10011000D9F727E0A2EBB2E001C01D92A93BB207DC
:10012000E1F70E9494030C94D5070C9400001F92F1
:100130000F920FB60F9211248F9381E08093B20239
:100140008F910F900FBE0F901F9018951F920F92D6
:100150000FB60F9211248F939F9381E090E09093BC
:10016000B4028093B3029F918F910F900FBE0F90B6
:100170001F9018958A3049F09091C00095FFFCCFF0
:100180008093C60080E090E008959091C00095FFB4
:10019000FCCF9DE09093C600EFCF9093C500809375
:1001A000C40086E08093C20088E98093C10008956E
:1001B0009091C00095FFFCCF8093C6000895809178
:1001C000C00087FFFCCF8091C60008958091C000D9
:1001D000881F8827881F0895FC012081222351F061
:1001E00031969091C00095FFFCCF2093C6002191DD
:1001F0002111F7CF089580E092E09093B6078093A5
:10020000B5071092C50082E38093C40086E0809316
:10021000C20088E98093C100089590E490937C0027
:1002200090917C00907E8F71892B80937C008091CF
:100230007B00877F80937B0087E880937A008091A2
:100240007A00806480937A0080917A0086FDFCCFEA
:10025000809178009091790008951092C50082E312
:100260008093C40086E08093C20088E98093C10037
:1002700008959091C00095FFFCCF8093C60008952B
:100280008091C00087FFFCCF8091C60008959C013B
:10029000FC019091C00097FFFCCF9091C600919314
:1002A0009A3011F09D30A9F71192CF01821B930B68
:1002B0000895FC012081222351F031969091C000D5
:1002C00095FFFCCF2093C60021912111F7CF08950F
:1002D0008130910509F4B2C00CF499C082309105C7
:1002E00009F470C0039709F0CFC0E7EBF2E080E0BB
:1002F00090E021913191820F931F22E0E33FF207BA
:10030000C1F7E0916B03F0916C036EE170E00E9425
:10031000970470936C0360936B0320916D0330918D
:100320006E03F0936E03E0936D0380916F039091E1
:1003300070033093700320936F0320917103309109
:100340007203909372038093710380917303909171
:1003500074033093740320937303209175033091D9
:100360007603909376038093750380917703909141
:1003700078033093780320937703209179033091A9
:100380007A0390937A038093790380917B03909111
:100390007C0330937C0320937B0320917D03309179
:1003A0007E0390937E0380937D0380917F039091E1
:1003B00080033093800320937F0390938203809384
:1003C00081030895E3E8F3E080E090E0219131912A
:1003D000820F931F23E0E33BF207C1F72091B7029E
:1003E0003091B80268E170E00E9497047093B802FF
:1003F0006093B702E9EBF2E0908181812193319320
:10040000292F382F82E0E33FF807B1F70895892BB1
:10041000D1F58091F3029091F4027093F40260930D
:10042000F302E5EFF2E03081218181939193832FF4
:10043000922F23E0EB36F207B1F70895E3EFF2E0F5
:1004400080E090E021913191820F931F23E0EB3601
:10045000F207C1F720918303309184036CE370E0CD
:100460000E9497047093840360938303E5E8F3E0AC
:100470009081818121933193292F382F83E0E33BB1
:10048000F807B1F708950895089548E750E06FEF31
:100490007FEF83EF92E00E94DD0440E350E06FEFD6
:1004A0007FEF83E893E00E94DD044CE350E06FEFC0
:1004B0007FEF87EB92E00E94DD0448E150E06FEFB0
:1004C0007FEF8BE693E00C94DD04CF92DF92EF9206
:1004D000FF920F931F93CF93DF93CDB7DEB7D45026
:1004E0000FB6F894DEBF0FBECDBF8E010F5F1F4F5A
:1004F00080E094E0F8019C01119221503040E1F736
:10050000E3EFEE2EE2E0FE2EF7E2CF2EF2E0DF2E5A
:1005100016C09F938F93DF92CF921F930F930E94E9
:10052000EC04C8010E9459010F900F900F900F909A
:100530000F900F903BE6E31633E0F306E1F0F7018E
:10054000819191917F018F3FFFEF9F0711F78FEF0F
:100550008F938F9387E292E09F938F931F930F93D4
:100560000E94EC04C8010E9459010F900F900F9057
:100570000F900F900F9080918303909184038F3F91
:100580002FEF920709F165E8C62E63E0D62E77E2D9
:10059000E72E72E0F72E9F938F93FF92EF921F93B7
:1005A0000F930E94EC04C8010E945901F601819149
:1005B00091916F010F900F900F900F900F900F90EF
:1005C0008F3FFFEF9F0739F78FEF8F938F9387E26E
:1005D00092E09F938F931F930F930E94EC04C801A6
:1005E0000E9459018091B7029091B8020F900F902C
:1005F0000F900F900F900F908F3FEFEF9E0709F134
:1006000049EBC42E42E0D42E57E2E52E52E0F52EFF
:100610009F938F93FF92EF921F930F930E94EC048E
:10062000C8010E945901F601819191916F010F90CB
:100630000F900F900F900F900F908F3FFFEF9F073D
:1006400039F78FEF8F938F9387E292E09F938F9389
:100650001F930F930E94EC04C8010E9459018091DE
:100660006B0390916C030F900F900F900F900F9071
:100670000F908F3F2FEF920709F12DE6C22E23E056
:10068000D22E37E2E32E32E0F32E9F938F93FF9228
:10069000EF921F930F930E94EC04C8010E9459012E
:1006A000F601819191916F010F900F900F900F9033
:1006B0000F900F908F3FFFEF9F0739F78FEF8F93CA
:1006C0008F9387E292E09F938F931F930F930E94E3
:1006D000EC04C8010E9459010F900F900F900F90E9
:1006E0000F900F90DC5F0FB6F894DEBF0FBECDBF4A
:1006F000DF91CF911F910F91FF90EF90DF90CF90FE
:100700000895109220018DE08093210184E09DE303
:100710009093290180932801F894E3E7F0E0808129
:100720008260808378940895CF93DF9300D01F92E6
:10073000CDB7DEB70E94FB000E942D010E9445024A
:100740000E94810380E192E00E945901A12CB12C0A
:10075000C12CD12C812C912C1C821B8281E090E039
:100760009A83898366246A94762C00E010E09CE3E7
:10077000E92EF12C28E1422E512C3EE1232E312C82
:100780008091B202811137C08091B3029091B4027E
:10079000892BB1F383EB93E00E94470183EB93E055
:1007A0000E9459018091B303853609F465C008F4AD
:1007B0005AC0813709F46EC0833709F066C085E7F7
:1007C00092E00E94590183EB93E00E94470183EB82
:1007D00093E00E94BF049A83898381E090E0909324
:1007E000B6028093B5021092B4021092B3028091C7
:1007F000B202882349F280E00E940D019C01080F9B
:10080000191F8B819C8101969C838B838091B502FB
:100810009091B602892B49F08B819C8169817A8104
:100820000E949704892B09F46BC08B819C81B701CE
:100830000E949704892B09F452C0C401B7010E9499
:100840009704892B09F440C0C601B2010E949704A5
:10085000892B79F1C501B1010E949704892B09F117
:100860001092B20291CF833681F48BE292E00E9423
:1008700059010E944502B7CF89E592E00E945901D3
:100880001092B6021092B502AECF83E992E00E94B8
:100890005901A9CF83E492E00E9459010E946502A8
:1008A000A2CFB30183E090E00E946801A12CB12C9B
:1008B000D7CFB30182E090E00E9468012FEFA21A27
:1008C000B20AC12CD12CC6CFB30181E090E00E94C6
:1008D00068019FEFC91AD90A812C912CB5CFC801A4
:1008E000B7010E9497043B0180E090E00E946801FC
:1008F0008FEF881A980A1C821B8200E010E09DCFBF
:100900003F932F9387E292E09F938F9383EB93E043
:100910009F938F930E94EC0483EB93E00E94590114
:100920000F900F900F900F900F900F907ECF97FB2E
:10093000072E16F4009407D077FD09D00E94AB046F
:1009400007FC05D03EF4909581959F4F08957095D2
:1009500061957F4F0895AA1BBB1B51E107C0AA1FD9
:10096000BB1FA617B70710F0A61BB70B881F991F50
:100970005A95A9F780959095BC01CD010895FC0189
:1009800088279927E89421912032E9F3293010F043
:100990002E30C8F32B3241F02D3239F4689404C064
:1009A0000E94E404820F911D219120532A30C0F34C
:1009B0001EF4909581959F4F0895DC0101C06D93C1
:1009C00041505040E0F708957AE0979F902D879F1F
:1009D000802D910D112408950F931F93CF93DF93D2
:1009E000CDB7DEB72E970FB6F894DEBF0FBECDBFE2
:1009F0000E891F8986E08C831A8309838FEF9FE716
:100A00009E838D83AE01465E5F4F688D798DCE01EA
:100A100001960E941B05EF81F885E00FF11F1082FF
:100A20002E960FB6F894DEBF0FBECDBFDF91CF91EB
:100A30001F910F9108952F923F924F925F926F9264
:100A40007F928F929F92AF92BF92CF92DF92EF925E
:100A5000FF920F931F93CF93DF93CDB7DEB72B9702
:100A60000FB6F894DEBF0FBECDBF6C017B018A01CB
:100A7000FC0117821682838181FFCCC1CE010196D1
:100A80003C01F6019381F70193FD859193FF8191DC
:100A90007F01882309F4BAC1853239F493FD859129
:100AA00093FF81917F01853229F4B60190E00E9485
:100AB0003B07E7CF912C212C312CFFE1F315D8F027
:100AC0008B3279F038F4803279F08332A1F4232D1F
:100AD00020611DC08D3261F0803369F4232D2160C7
:100AE00016C0832D8260382EE32DE4603E2E2AC08E
:100AF000F32DF8601DC037FC2DC020ED280F2A30E3
:100B000040F08E32B9F436FC81C1232D2064322EA0
:100B100019C036FE06C08AE0989E200D1124922E40
:100B200011C0EAE02E9E200D1124222EF32DF0623A
:100B30003F2E08C08C3621F4832D8068382E02C0E9
:100B4000883641F4F70193FD859193FF81917F01F0
:100B50008111B3CF982F9F7D9554933028F40C5F6B
:100B60001F4F9FE399830DC0833631F0833771F0B7
:100B7000833509F059C021C0F801808189830E5F57
:100B80001F4F88248394912C530113C02801F2E055
:100B90004F0E511CF801A080B18036FE03C0692DB4
:100BA00070E002C06FEF7FEFC5010E9430074C017B
:100BB0008201F32DFF773F2E16C0280122E0420E5E
:100BC000511CF801A080B18036FE03C0692D70E091
:100BD00002C06FEF7FEFC5010E9425074C01F32D86
:100BE000F0683F2E820133FC1BC0822D90E08816F6
:100BF0009906B0F4B60180E290E00E943B072A9487
:100C0000F4CFF50137FC859137FE81915F01B60184
:100C100090E00E943B0721102A9421E0821A91085B
:100C20008114910471F7E8C0843611F0893641F5DA
:100C3000F80137FE07C060817181828193810C5F6A
:100C40001F4F08C060817181072E000C880B990B23
:100C50000E5F1F4FF32DFF763F2E97FF09C0909533
:100C60008095709561957F4F8F4F9F4FF0683F2E15
:100C70002AE030E0A3010E947707882E861845C03D
:100C8000853731F4232D2F7EB22E2AE030E025C0A7
:100C9000932D997FB92E8F36C1F018F4883579F0ED
:100CA000B5C0803719F0883721F0B0C0E92FE06176
:100CB000BE2EB4FE0DC0FB2DF460BF2E09C034FE65
:100CC0000AC0292F2660B22E06C028E030E005C0F9
:100CD00020E130E002C020E132E0F801B7FE07C0B9
:100CE00060817181828193810C5F1F4F06C060819A
:100CF000718180E090E00E5F1F4FA3010E94770793
:100D0000882E8618FB2DFF773F2E36FE0DC0232D33
:100D10002E7FA22E891458F434FE0BC032FC09C079
:100D2000832D8E7EA82E05C0B82CA32C03C0B82C12
:100D300001C0B92CA4FE0FC0FE01E80DF11D808199
:100D4000803321F49A2D997EA92E09C0A2FE06C0F7
:100D5000B394B39404C08A2D867809F0B394A3FCAD
:100D600011C0A0FE06C0B21488F4280C922C9B1867
:100D70000EC0B21460F4B60180E290E00E943B071E
:100D8000B394F7CFB21418F42B1802C0982C212C6E
:100D9000A4FE10C0B60180E390E00E943B07A2FED3
:100DA00017C0A1FC03C088E790E002C088E590E08E
:100DB000B6010CC08A2D867859F0A1FE02C08BE2E4
:100DC00001C080E2A7FC8DE2B60190E00E943B07E3
:100DD000891438F4B60180E390E00E943B079A94AE
:100DE000F7CF8A94F301E80DF11D8081B60190E000
:100DF0000E943B078110F5CF222009F442CEB601B4
:100E000080E290E00E943B072A94F6CFF6018681AB
:100E1000978102C08FEF9FEF2B960FB6F894DEBF3D
:100E20000FBECDBFDF91CF911F910F91FF90EF903B
:100E3000DF90CF90BF90AF909F908F907F906F90FA
:100E40005F904F903F902F900895FC010590615066
:100E500070400110D8F7809590958E0F9F1F0895D0
:100E6000FC016150704001900110D8F78095909579
:100E70008E0F9F1F08950F931F93CF93DF93FB0156
:100E8000238121FD03C08FEF9FEF2CC022FF16C0EE
:100E900046815781248135814217530744F4A0814C
:100EA000B1819D012F5F3F4F318320838C93268139
:100EB00037812F5F3F4F3783268314C08B01EC01AE
:100EC000FB010084F185E02D1995892BE1F6D8010D
:100ED00016968D919C911797019617969C938E93D9
:100EE0001697CE01DF91CF911F910F910895FA01CE
:100EF000AA27283051F1203181F1E8946F936E7F59
:100F00006E5F7F4F8F4F9F4FAF4FB1E03ED0B4E049
:100F10003CD0670F781F891F9A1FA11D680F791F8A
:100F20008A1F911DA11D6A0F711D811D911DA11D9B
:100F300020D009F468943F912AE0269F11243019AB
:100F4000305D3193DEF6CF010895462F4770405D46
:100F50004193B3E00FD0C9F7F6CF462F4F70405DF5
:100F60004A3318F0495D31FD4052419302D0A9F750
:100F7000EACFB4E0A6959795879577956795BA954A
:100F8000C9F700976105710508959B01AC010A2E10
:100F900006945795479537952795BA95C9F7620FE7
:0E0FA000731F841F951FA01D0895F894FFCFA6
:100FAE000000000200000000BA0000000000E8038C
:100FBE006176725C696E697420636F6D706C6574B6
:100FCE0065202E2E2E0A0025640A006176725C635F
:100FDE006C656172696E67207374617473202E2E56
:100FEE002E0A006176725C73656E64696E672064AA
:100FFE00617461202E2E2E0A006176725C656E641D
:10100E00696E67206F6E6C696E65206D6F6465200A
:10101E002E2E2E0A006176725C7374617274696E84
:10102E0067206F6E6C696E65206D6F6465202E2E65
:10103E002E0A006176725C7768617420686176654D
:10104E0020796F752073656E7420746F206D653F07
:02105E000A0086
:00000001FF
