:100000000C9474000C9495000C9495000C9495003D
:100010000C9495000C9495000C9495000C9495000C
:100020000C9495000C9495000C9495000C949500FC
:100030000C9495000C9495000C9495000C949500EC
:100040000C9495000C9495000C9495000C949500DC
:100050000C9495000C9495000C9495000C949500CC
:100060000C9495000C9495000C9495000C949500BC
:100070000C9495000C9495000C9495000C949500AC
:100080000C9495000C9495000C9495000C9495009C
:100090000C9495000C9495000C9495000C9495008C
:1000A0000C9495000C9495000C9495000C9495007C
:1000B0000C9495000C9495000C9495000C9495006C
:1000C0000C9495000C9495000C9495000C9495005C
:1000D0000C9495000C9495000C9495000C9495004C
:1000E0000C9495000C94970011241FBECFEFD1E221
:1000F000DEBFCDBF00E00CBF12E0A0E0B2E0E2E561
:10010000FFE000E00BBF02C007900D92A638B107D8
:10011000D9F727E0A6E8B2E001C01D92AA38B207DD
:10012000E1F70E945E030C94A7070C9400008A304C
:1001300049F09091C00095FFFCCF8093C60080E00D
:1001400090E008959091C00095FFFCCF9DE09093C2
:10015000C600EFCF9093C5008093C40086E08093E3
:10016000C20088E98093C10008959091C00095FF76
:10017000FCCF8093C60008958091C00087FFFCCF1C
:100180008091C60008958091C000881F8827881F2D
:100190000895FC012081222351F031969091C000F6
:1001A00095FFFCCF2093C60021912111F7CF089530
:1001B00080E092E090938707809386071092C500B5
:1001C00082E38093C40086E08093C20088E9809334
:1001D000C100089590E490937C0090917C00907E03
:1001E0008F71892B80937C0080917B00877F809327
:1001F0007B0087E880937A0080917A008064809306
:100200007A0080917A0086FDFCCF809178009091F1
:10021000790008951092C50082E38093C40086E0BF
:100220008093C20088E98093C10008959091C00036
:1002300095FFFCCF8093C60008958091C00087FF92
:10024000FCCF8091C60008959C01FC019091C000F4
:1002500097FFFCCF9091C60091939A3011F09D309A
:10026000A9F71192CF01821B930B0895FC01208105
:10027000222351F031969091C00095FFFCCF20933E
:10028000C60021912111F7CF08958130910509F41D
:10029000B2C00CF499C08230910509F470C0039784
:1002A00009F0CFC0E6E8F2E080E090E021913191E2
:1002B000820F931F22E0E23CF207C1F7E0913A037C
:1002C000F0913B036EE170E00E94690470933B0380
:1002D00060933A0320913C0330913D03F0933D033A
:1002E000E0933C0380913E0390913F0330933F03A2
:1002F00020933E03209140033091410390934103AA
:1003000080934003809142039091430330934303D1
:100310002093420320914403309145039093450379
:1003200080934403809146039091470330934703A1
:100330002093460320914803309149039093490349
:100340008093480380914A0390914B0330934B0371
:1003500020934A0320914C0330914D0390934D0319
:1003600080934C0380914E0390914F0330934F0341
:1003700020934E0390935103809350030895E4E536
:10038000F3E080E090E021913191820F931F23E010
:10039000E438F207C1F7209186023091870268E1C4
:1003A00070E00E9469047093870260938602E8E817
:1003B000F2E09081818121933193292F382F82E0BF
:1003C000E23CF807B1F70895892BD1F58091C2027C
:1003D0009091C3027093C3026093C202E4ECF2E016
:1003E0003081218181939193832F922F23E0EA33EF
:1003F000F207B1F70895E2ECF2E080E090E021919D
:100400003191820F931F23E0EA33F207C1F7209165
:100410005403309155036CE370E00E9469047093BB
:10042000550360935403E6E5F3E0908181812193C5
:100430003193292F382F83E0E438F807B1F7089576
:100440000895089548E750E06FEF7FEF82EC92E067
:100450000E94AF0440E350E06FEF7FEF84E593E04C
:100460000E94AF044CE350E06FEF7FEF86E892E02C
:100470000E94AF0448E150E06FEF7FEF8AE393E022
:100480000C94AF04CF92DF92EF92FF920F931F93E1
:10049000CF93DF93CDB7DEB7D4500FB6F894DEBF5D
:1004A0000FBECDBF8E010F5F1F4F80E094E0F801BB
:1004B0009C01119221503040E1F7E2ECEE2EE2E097
:1004C000FE2EF1E8CF2EF2E0DF2E16C09F938F9321
:1004D000DF92CF921F930F930E94BE04C8010E9427
:1004E00036010F900F900F900F900F900F903AE3FE
:1004F000E31633E0F306E1F0F701819191917F017A
:100500008F3FFFEF9F0711F78FEF8F938F9381E856
:1005100092E09F938F931F930F930E94BE04C80194
:100520000E9436010F900F900F900F900F900F9038
:1005300080915403909155038F3F2FEF920709F15B
:1005400066E5C62E63E0D62E71E8E72E72E0F72E40
:100550009F938F93FF92EF921F930F930E94BE047D
:10056000C8010E943601F601819191916F010F90AF
:100570000F900F900F900F900F908F3FFFEF9F07FE
:1005800039F78FEF8F938F9381E892E09F938F934A
:100590001F930F930E94BE04C8010E9436018091F0
:1005A0008602909187020F900F900F900F900F90FE
:1005B0000F908F3FEFEF9E0709F148E8C42E42E00D
:1005C000D42E51E8E52E52E0F52E9F938F93FF92A3
:1005D000EF921F930F930E94BE04C8010E94360140
:1005E000F601819191916F010F900F900F900F90F4
:1005F0000F900F908F3FFFEF9F0739F78FEF8F938B
:100600008F9381E892E09F938F931F930F930E94A3
:10061000BE04C8010E94360180913A0390913B03C9
:100620000F900F900F900F900F900F908F3F2FEF24
:10063000920709F12CE3C22E23E0D22E31E8E32EFB
:1006400032E0F32E9F938F93FF92EF921F930F93BD
:100650000E94BE04C8010E943601F6018191919169
:100660006F010F900F900F900F900F900F908F3F92
:10067000FFEF9F0739F78FEF8F938F9381E892E019
:100680009F938F931F930F930E94BE04C8010E94F3
:1006900036010F900F900F900F900F900F90DC5F2E
:1006A0000FB6F894DEBF0FBECDBFDF91CF911F9183
:1006B0000F91FF90EF90DF90CF900895CF93DF934D
:1006C00000D01F92CDB7DEB70E94D8000E940A0169
:1006D0000E942202109253031092520381E090E094
:1006E0009A83898366246A94762C00E010E0A12C1A
:1006F000B12CC12CD12C812C912C1C821B829CE30F
:10070000E92EF12C28E1422E512C3EE1232E312CF2
:100710001EC0C401B7010E946904892B09F454C0AA
:10072000C601B2010E946904892B09F45EC0C501AB
:10073000B1010E946904892B09F468C08FEF93ED21
:1007400020E3815090402040E1F700C000008091FC
:10075000C00087FD7AC080E00E94EA009C01080F7B
:10076000191F8B819C8101969C838B8380915203FE
:1007700090915303892B49F08B819C8169817A8107
:100780000E946904892B09F449C08B819C81B701BF
:100790000E946904892B09F0BCCFC801B7010E94EF
:1007A00069043B0180E090E00E9445018FEF881AC8
:1007B000980A00E010E01C821B82C401B7010E946D
:1007C0006904892B09F0ACCFB30181E090E00E946D
:1007D00045019FEFC91AD90A812C912CC601B2019B
:1007E0000E946904892B09F0A2CFB30182E090E056
:1007F0000E9445012FEFA21AB20AC12CD12CC501CB
:10080000B1010E946904892B09F098CFB30183E0FC
:1008100090E00E944501A12CB12C90CF3F932F93E3
:1008200081E892E09F938F9384E893E09F938F9366
:100830000E94BE0484E893E00E9436010F900F905E
:100840000F900F900F900F90A0CF84E893E00E943C
:10085000240184E893E00E94360180918403853668
:1008600019F1C8F0813771F1833739F58CE492E0E2
:100870000E94360184E893E00E94240184E893E01A
:100880000E9491049A83898381E090E090935303BE
:100890008093520360CF833681F48EE092E00E9411
:1008A00036010E94220257CF84E392E00E94360173
:1008B00010925303109252034ECF86E692E00E94AC
:1008C000360149CF82E292E00E9436010E94420244
:1008D00042CF97FB072E16F4009407D077FD09D07E
:1008E0000E947D0407FC05D03EF4909581959F4FB2
:1008F0000895709561957F4F0895AA1BBB1B51E128
:1009000007C0AA1FBB1FA617B70710F0A61BB70B7F
:10091000881F991F5A95A9F780959095BC01CD0124
:100920000895FC0188279927E89421912032E9F362
:10093000293010F02E30C8F32B3241F02D3239F42B
:10094000689404C00E94B604820F911D2191205327
:100950002A30C0F31EF4909581959F4F0895DC01D5
:1009600001C06D9341505040E0F708957AE0979FA1
:10097000902D879F802D910D112408950F931F9323
:10098000CF93DF93CDB7DEB72E970FB6F894DEBFC7
:100990000FBECDBF0E891F8986E08C831A83098321
:1009A0008FEF9FE79E838D83AE01465E5F4F688D1C
:1009B000798DCE0101960E94ED04EF81F885E00F5C
:1009C000F11F10822E960FB6F894DEBF0FBECDBF7A
:1009D000DF91CF911F910F9108952F923F924F92E7
:1009E0005F926F927F928F929F92AF92BF92CF92BF
:1009F000DF92EF92FF920F931F93CF93DF93CDB7C8
:100A0000DEB72B970FB6F894DEBF0FBECDBF6C01DB
:100A10007B018A01FC0117821682838181FFCCC190
:100A2000CE0101963C01F6019381F70193FD85917A
:100A300093FF81917F01882309F4BAC1853239F48B
:100A400093FD859193FF81917F01853229F4B60151
:100A500090E00E940D07E7CF912C212C312CFFE173
:100A6000F315D8F08B3279F038F4803279F0833294
:100A7000A1F4232D20611DC08D3261F0803369F413
:100A8000232D216016C0832D8260382EE32DE46073
:100A90003E2E2AC0F32DF8601DC037FC2DC020ED7E
:100AA000280F2A3040F08E32B9F436FC81C1232D54
:100AB0002064322E19C036FE06C08AE0989E200DB2
:100AC0001124922E11C0EAE02E9E200D1124222E18
:100AD000F32DF0623F2E08C08C3621F4832D806800
:100AE000382E02C0883641F4F70193FD859193FFBB
:100AF00081917F018111B3CF982F9F7D95549330C1
:100B000028F40C5F1F4F9FE399830DC0833631F0AB
:100B1000833771F0833509F059C021C0F801808115
:100B200089830E5F1F4F88248394912C530113C037
:100B30002801F2E04F0E511CF801A080B18036FE72
:100B400003C0692D70E002C06FEF7FEFC5010E9406
:100B500002074C018201F32DFF773F2E16C02801BA
:100B600022E0420E511CF801A080B18036FE03C085
:100B7000692D70E002C06FEF7FEFC5010E94F7069C
:100B80004C01F32DF0683F2E820133FC1BC0822DF7
:100B900090E088169906B0F4B60180E290E00E94D9
:100BA0000D072A94F4CFF50137FC859137FE81912A
:100BB0005F01B60190E00E940D0721102A9421E008
:100BC000821A91088114910471F7E8C0843611F0FB
:100BD000893641F5F80137FE07C060817181828155
:100BE00093810C5F1F4F08C060817181072E000C3C
:100BF000880B990B0E5F1F4FF32DFF763F2E97FF4B
:100C000009C090958095709561957F4F8F4F9F4F4C
:100C1000F0683F2E2AE030E0A3010E944907882EA9
:100C2000861845C0853731F4232D2F7EB22E2AE059
:100C300030E025C0932D997FB92E8F36C1F018F47E
:100C4000883579F0B5C0803719F0883721F0B0C009
:100C5000E92FE061BE2EB4FE0DC0FB2DF460BF2E67
:100C600009C034FE0AC0292F2660B22E06C028E033
:100C700030E005C020E130E002C020E132E0F801C0
:100C8000B7FE07C060817181828193810C5F1F4F25
:100C900006C06081718180E090E00E5F1F4FA3016C
:100CA0000E944907882E8618FB2DFF773F2E36FEBF
:100CB0000DC0232D2E7FA22E891458F434FE0BC0B4
:100CC00032FC09C0832D8E7EA82E05C0B82CA32C23
:100CD00003C0B82C01C0B92CA4FE0FC0FE01E80D62
:100CE000F11D8081803321F49A2D997EA92E09C0AF
:100CF000A2FE06C0B394B39404C08A2D867809F08E
:100D0000B394A3FC11C0A0FE06C0B21488F4280C52
:100D1000922C9B180EC0B21460F4B60180E290E0F1
:100D20000E940D07B394F7CFB21418F42B1802C029
:100D3000982C212CA4FE10C0B60180E390E00E9404
:100D40000D07A2FE17C0A1FC03C088E790E002C017
:100D500088E590E0B6010CC08A2D867859F0A1FE96
:100D600002C08BE201C080E2A7FC8DE2B60190E0F8
:100D70000E940D07891438F4B60180E390E00E94C8
:100D80000D079A94F7CF8A94F301E80DF11D808145
:100D9000B60190E00E940D078110F5CF222009F4E2
:100DA00042CEB60180E290E00E940D072A94F6CF71
:100DB000F6018681978102C08FEF9FEF2B960FB6C9
:100DC000F894DEBF0FBECDBFDF91CF911F910F9181
:100DD000FF90EF90DF90CF90BF90AF909F908F905B
:100DE0007F906F905F904F903F902F900895FC01FF
:100DF0000590615070400110D8F7809590958E0F46
:100E00009F1F0895FC016150704001900110D8F7B8
:100E1000809590958E0F9F1F08950F931F93CF93EA
:100E2000DF93FB01238121FD03C08FEF9FEF2CC0D7
:100E300022FF16C04681578124813581421753070E
:100E400044F4A081B1819D012F5F3F4F3183208306
:100E50008C93268137812F5F3F4F3783268314C0C1
:100E60008B01EC01FB010084F185E02D1995892BA4
:100E7000E1F6D80116968D919C91179701961796D9
:100E80009C938E931697CE01DF91CF911F910F9176
:100E90000895FA01AA27283051F1203181F1E89410
:100EA0006F936E7F6E5F7F4F8F4F9F4FAF4FB1E05D
:100EB0003ED0B4E03CD0670F781F891F9A1FA11D58
:100EC000680F791F8A1F911DA11D6A0F711D811D59
:100ED000911DA11D20D009F468943F912AE0269F1E
:100EE00011243019305D3193DEF6CF010895462F7D
:100EF0004770405D4193B3E00FD0C9F7F6CF462F5E
:100F00004F70405D4A3318F0495D31FD40524193C6
:100F100002D0A9F7EACFB4E0A69597958795779583
:100F20006795BA95C9F700976105710508959B010A
:100F3000AC010A2E06945795479537952795BA9593
:100F4000C9F7620F731F841F951FA01D0895F894A1
:020F5000FFCFD1
:100F52000000000200000000970000000000636C27
:100F6200656172696E67207374617473202E2E2E10
:100F72000A0073656E64696E672064617461202E75
:100F82002E2E0A00656E64696E67206F6E6C696E44
:100F920065206D6F6465202E2E2E0A0073746172B7
:100FA20074696E67206F6E6C696E65206D6F646523
:100FB200202E2E2E0A0077686174206861766520E3
:100FC200796F752073656E7420746F206D653F0AAA
:060FD2000025640A000086
:00000001FF
